:100000000C942A000C9447000C9447000C94470071
:100010000C9447000C9447000C9447000C94470044
:100020000C9447000C9447000C9447000C94470034
:100030000C9447000C9447000C9447000C94470024
:100040000C9447000C9447000C9447000C94470014
:100050000C94470011241FBECFE5D8E0DEBFCDBF12
:1000600010E0A0E6B0E0E2E1FBE002C005900D92F6
:10007000AE3DB107D9F720E0AEEDB0E001C01D9272
:10008000AE3DB207E1F70E9472030C9487050C9411
:1000900000000E94A90366E081E00E9477030E94AD
:1000A00098020E94850166E080E00E94B60280E727
:1000B00090E00E94C30261E081E10E94870460E059
:1000C00082E10E94870460E083E10E94870460E08F
:1000D00080E10C948704EF92FF920F931F93CF93CC
:1000E000DF93CDB7DEB760970FB6F894DEBF0FBED3
:1000F000CDBF86E0E7EBF0E0DE011B9601900D92AC
:100100008A95E1F70E945B036AE070E00E94230594
:100110008B0160E081E00E94B602B80180E090E0CF
:100120000E94D60285E790E00E94C30203331105C6
:1001300008F4A2C00E945E038C016CE081E00E9482
:10014000B602B80180E090E00E94D6028EE990E00D
:100150000E94C30266E080E00B38124008F480C0C1
:100160000E94B60289E790E00E94C30260E081E14C
:100170000E94870460E082E10E94870461E083E1DD
:100180000E94870461E080E10E94870460E081E0D2
:100190000E94B6028EE790E00E94C30210E00E9427
:1001A0009001082F8435A9F180ED800F8A30D0F4BA
:1001B00011110CC060E081E00E94B6028FE890E06F
:1001C0000E94C30260E081E00E94B602802F0E947C
:1001D000C102E1E0F0E0EC0FFD1FE10FF11D008333
:1001E0001F5F17C00D3399F0033499F4112389F080
:1001F00060E081E00E94B6028FE890E00E94C302B6
:1002000060E081E00E94B60280E010E003C081E07F
:1002100001C080E0FE013B96DF019D012E1B3F0BDC
:100220009D919111FACFDE0111967D01AD01BA01C8
:100230006E197F09DA019D91AD019111F8CF621716
:10024000730709F048C02E0F3F1FE217F30709F4A8
:100250004CC04191D7019D917D014917B1F33BC03D
:100260000E94B60282EB90E00E94C30260E081E14E
:100270000E94870461E018C00D321105C8F566E0E0
:1002800080E00E94B60280E790E00E94C3026CE02A
:1002900081E00E94B6028DE990E00E94C30261E015
:1002A00081E10E94870460E082E10E94870460E0AF
:1002B00083E10E94870460E080E160960FB6F894C5
:1002C000DEBF0FBECDBFDF91CF911F910F91FF9089
:1002D000EF900C948704813009F061CF60E081E0F9
:1002E0000E94B60282EA90E057CF813009F057CFE2
:1002F00060960FB6F894DEBF0FBECDBFDF91CF91F1
:100300001F910F91FF90EF900895CF93CCE061E0A3
:100310008C2F0E948704CF5FC031C9F7CF91089519
:10032000DF92EF92FF920F931F93CF93DF9390E6AC
:10033000E92E90E0F92ECCE0D4E560E08C2F0E940D
:10034000870400E010E08AE1D82ED00E8D2D0E94A7
:100350000605811115C0F701E00FF11FD0818FE173
:100360009EE40197F1F700C000008D2D0E94060564
:100370008823D9F38FE19EE40197F1F700C00000D4
:100380000F5F1F4F04301105F1F661E08C2F0E94C2
:100390008704CF5F94E0E90EF11CC03171F68D2F18
:1003A000DF91CF911F910F91FF90EF90DF90089513
:1003B000CF93C82F60E081E00E9487046C2F661FF6
:1003C0006627661F86E00E948704C6FB662760F9E1
:1003D00085E00E948704C5FB662760F984E00E94DF
:1003E0008704C4FB662760F983E00E94870461E00C
:1003F00082E00E9487048FEC97E00197F1F700C03C
:10040000000060E082E00E9487048FEC97E0019793
:10041000F1F700C00000C3FB662760F986E00E9488
:100420008704C2FB662760F985E00E948704C1FB50
:10043000662760F984E00E9487046C2F617083E076
:100440000E94870461E082E00E9487048FEC97E0BD
:100450000197F1F700C0000060E082E00E9487048D
:100460008FEC97E00197F1F700C00000CF9108955D
:10047000CF93C82F61E081E00E9487046C2F661F34
:100480006627661F86E00E948704C6FB662760F920
:1004900085E00E948704C5FB662760F984E00E941E
:1004A0008704C4FB662760F983E00E94870461E04B
:1004B00082E00E9487048FEC97E00197F1F700C07B
:1004C000000060E082E00E9487048FEC97E00197D3
:1004D000F1F700C00000C3FB662760F986E00E94C8
:1004E0008704C2FB662760F985E00E948704C1FB90
:1004F000662760F984E00E9487046C2F617083E0B6
:100500000E94870461E082E00E9487048FEC97E0FC
:100510000197F1F700C0000060E082E00E948704CC
:100520008FEC97E00197F1F700C00000CF9108959C
:100530002FE788E391E0215080409040E1F700C030
:10054000000082E00E94D80188E20E94D8018CE07D
:100550000E94D80181E00E94D8018FEC97E00197BA
:10056000F1F700C0000086E00C94D801811102C0B0
:1005700080E803C0813021F480EC860F0C94D80110
:1005800008950C9438020F931F93CF938C01C0E011
:10059000F801EC0FF11D8081882321F00E943802C0
:1005A000CF5FF6CFCF911F910F9108954F925F9239
:1005B0006F927F92AF92BF92CF92DF92EF92FF92B3
:1005C0001F93CF93DF93CDB7DEB764970FB6F89440
:1005D000DEBF0FBECDBF6B017C0197FF0CC08DE26B
:1005E0000E943802F094E094D094C094C11CD11CB5
:1005F000E11CF11C04C0672B682B692B39F010E05B
:100600009AE0492E512C612C712C16C080E364961F
:100610000FB6F894DEBF0FBECDBFDF91CF911F9113
:10062000FF90EF90DF90CF90BF90AF907F906F9052
:100630005F904F900C943802AA24A394B12CAC0E76
:10064000BD1EA10EB11CC701B601A30192010E94FB
:100650005905605DF501608381E0810F69017A01D0
:10066000C114D104E104F10411F0182FE5CFF12EEB
:10067000F7FC0DC0E1E0F0E0EC0FFD1FEF0DF11D08
:10068000F7FCFA9580810E943802FA94F1CF6496C3
:100690000FB6F894DEBF0FBECDBFDF91CF911F9193
:1006A000FF90EF90DF90CF90BF90AF907F906F90D2
:1006B0005F904F90089580E00C94980387E00E942B
:1006C0008C039C0127533109A8EEB3E00E94780502
:1006D00029E933E040E050E00E943705C9018A561D
:1006E0009F4F08950E9449000E946B00FDCF81300A
:1006F00041F028F0823039F43E9A3F9A04C03E9887
:1007000001C03E9A3F9886B1887F86B986B16770EE
:10071000682B66B9379A089597B1907E97B997B1CB
:10072000892B87B9369A3699FECF84B195B1089551
:100730000E948C039C01A8E8B3E10E947805DC01CB
:10074000CB012AE0B695A795979587952A95D1F77D
:100750000895EDEBF0E040E081E090E05191242F2E
:100760002770342F369536953695513009F443C0AD
:1007700020F0523009F482C0C5C0323001F133306C
:1007800061F1313071F05AB3BC0102C0660F771FBE
:100790002A95E2F79B01352F322B3ABB3BB32095CC
:1007A0003DC057B3BC0102C0660F771F2A95E2F720
:1007B0009B01352F322B37BB38B320953EC054B345
:1007C000BC0102C0660F771F2A95E2F79B01352F07
:1007D000322B34BB35B320953FC051B3BC0102C0AE
:1007E000660F771F2A95E2F79B01352F322B31BB1D
:1007F00032B3209541C0323011F1333081F13130C4
:1008000079F05AB3BC0102C0660F771F2A95E2F750
:100810009B012095352F32233ABB3BB3232342C0A3
:1008200057B3BC0102C0660F771F2A95E2F79B0100
:100830002095352F322337BB38B3232343C054B31D
:10084000BC0102C0660F771F2A95E2F79B01209535
:10085000352F322334BB35B3232325BB53C051B3CB
:10086000BC0102C0660F771F2A95E2F79B01209515
:10087000352F322331BB32B3232343C0323021F131
:10088000333089F1313081F05AB3BC0102C0660FB8
:10089000771F2A95E2F79B01362F309535233ABB17
:1008A0003BB3232B2BBB2EC057B3BC0102C0660F3A
:1008B000771F2A95E2F79B01362F3095352337BBFA
:1008C00038B3232B28BB1EC054B3BC0102C0660F33
:1008D000771F2A95E2F79B01362F3095352334BBDD
:1008E00035B3232BBACF51B3BC0102C0660F771FBB
:1008F0002A95E2F79B01362F3095352331BB32B371
:10090000232B22BB4F5F403209F028CF0895982F48
:1009100097708695869586956130C1F5813091F006
:1009200028F08230D9F0833029F108954BB321E0CB
:1009300030E0B90102C0660F771F9A95E2F7CB014C
:10094000842B38C048B321E030E0B90102C0660F03
:10095000771F9A95E2F7CB01842B3AC045B321E08B
:1009600030E0B90102C0660F771F9A95E2F7CB011C
:10097000842B3CC042B321E030E0B90102C0660FD5
:10098000771F9A95E2F7CB01842B3EC08130A1F00E
:1009900028F08230F9F0833059F108954BB321E00B
:1009A00030E0B90102C0660F771F9A95E2F7CB01DC
:1009B000809584238BBB089548B321E030E0B901D2
:1009C00002C0660F771F9A95E2F7CB0180958423CA
:1009D00088BB089545B321E030E0B90102C0660F3D
:1009E000771F9A95E2F7CB018095842385BB089504
:1009F00042B321E030E0B90102C0660F771F9A953B
:100A0000E2F7CB018095842382BB0895282F2770BD
:100A1000869586958695813049F030F0823041F098
:100A2000833079F480B305C089B303C086B301C0B5
:100A300083B390E002C0959587952A95E2F781707F
:100A4000089580E00895AA1BBB1B51E107C0AA1FAF
:100A5000BB1FA617B70710F0A61BB70B881F991F5F
:100A60005A95A9F780959095BC01CD010895A1E212
:100A70001A2EAA1BBB1BFD010DC0AA1FBB1FEE1F18
:100A8000FF1FA217B307E407F50720F0A21BB30B63
:100A9000E40BF50B661F771F881F991F1A9469F7DF
:100AA00060957095809590959B01AC01BD01CF013B
:100AB0000895052E97FB1EF400940E94700557FDC3
:100AC00007D00E94370507FC03D04EF40C94700544
:100AD00050954095309521953F4F4F4F5F4F08956A
:100AE00090958095709561957F4F8F4F9F4F08959A
:100AF000A29FB001B39FC001A39F700D811D11245F
:100B0000911DB29F700D811D1124911D0895F894BF
:020B1000FFCF15
:100B12003738392F3435362A3132332D43303D2B95
:100B220046696E65002D43200046697265002050BB
:100B320061737320746F20726573657421200020C5
:100B420020202020202020202020202020202020A3
:100B5200200057726F6E672050617373776F7264F3
:100B620021004865617400313233343500010000E0
:100B72000000000001000000000000000000000072
:0E0B820000000000000000020202020000005D
:00000001FF
